{
	"counter/counter.sol": {
		"Counter": {
			"abi": [
				{
					"inputs": [],
					"name": "decrement",
					"outputs": [],
					"stateMutability": "nonpayable",
					"type": "function"
				},
				{
					"inputs": [],
					"name": "increment",
					"outputs": [],
					"stateMutability": "nonpayable",
					"type": "function"
				},
				{
					"inputs": [],
					"name": "value",
					"outputs": [
						{
							"internalType": "int256",
							"name": "",
							"type": "int256"
						}
					],
					"stateMutability": "view",
					"type": "function"
				}
			],
			"devdoc": {
				"kind": "dev",
				"methods": {},
				"version": 1
			},
			"evm": {
				"assembly": "    /* \"counter/counter.sol\":61:238  contract Counter {... */\n  mstore(0x40, 0x80)\n    /* \"counter/counter.sol\":109:110  0 */\n  0x00\n    /* \"counter/counter.sol\":87:110  int256 public value = 0 */\n  0x00\n  sstore\n    /* \"counter/counter.sol\":61:238  contract Counter {... */\n  callvalue\n  dup1\n  iszero\n  tag_1\n  jumpi\n  revert(0x00, 0x00)\ntag_1:\n  pop\n  dataSize(sub_0)\n  dup1\n  dataOffset(sub_0)\n  0x00\n  codecopy\n  0x00\n  return\nstop\n\nsub_0: assembly {\n        /* \"counter/counter.sol\":61:238  contract Counter {... */\n      mstore(0x40, 0x80)\n      callvalue\n      dup1\n      iszero\n      tag_1\n      jumpi\n      revert(0x00, 0x00)\n    tag_1:\n      pop\n      jumpi(tag_2, lt(calldatasize, 0x04))\n      shr(0xe0, calldataload(0x00))\n      dup1\n      0x2baeceb7\n      eq\n      tag_3\n      jumpi\n      dup1\n      0x3fa4f245\n      eq\n      tag_4\n      jumpi\n      dup1\n      0xd09de08a\n      eq\n      tag_5\n      jumpi\n    tag_2:\n      revert(0x00, 0x00)\n        /* \"counter/counter.sol\":181:235  function decrement() public {... */\n    tag_3:\n      tag_6\n      tag_7\n      jump\t// in\n    tag_6:\n      stop\n        /* \"counter/counter.sol\":87:110  int256 public value = 0 */\n    tag_4:\n      tag_8\n      tag_9\n      jump\t// in\n    tag_8:\n      mload(0x40)\n      tag_10\n      swap2\n      swap1\n      tag_11\n      jump\t// in\n    tag_10:\n      mload(0x40)\n      dup1\n      swap2\n      sub\n      swap1\n      return\n        /* \"counter/counter.sol\":119:173  function increment() public {... */\n    tag_5:\n      tag_12\n      tag_13\n      jump\t// in\n    tag_12:\n      stop\n        /* \"counter/counter.sol\":181:235  function decrement() public {... */\n    tag_7:\n        /* \"counter/counter.sol\":220:225  value */\n      0x00\n      0x00\n        /* \"counter/counter.sol\":220:227  value-- */\n      dup2\n      sload\n      dup1\n      swap3\n      swap2\n      swap1\n      tag_15\n      swap1\n      tag_16\n      jump\t// in\n    tag_15:\n      swap2\n      swap1\n      pop\n      sstore\n      pop\n        /* \"counter/counter.sol\":181:235  function decrement() public {... */\n      jump\t// out\n        /* \"counter/counter.sol\":87:110  int256 public value = 0 */\n    tag_9:\n      sload(0x00)\n      dup2\n      jump\t// out\n        /* \"counter/counter.sol\":119:173  function increment() public {... */\n    tag_13:\n        /* \"counter/counter.sol\":158:163  value */\n      0x00\n      0x00\n        /* \"counter/counter.sol\":158:165  value++ */\n      dup2\n      sload\n      dup1\n      swap3\n      swap2\n      swap1\n      tag_18\n      swap1\n      tag_19\n      jump\t// in\n    tag_18:\n      swap2\n      swap1\n      pop\n      sstore\n      pop\n        /* \"counter/counter.sol\":119:173  function increment() public {... */\n      jump\t// out\n        /* \"#utility.yul\":7:83   */\n    tag_20:\n        /* \"#utility.yul\":43:50   */\n      0x00\n        /* \"#utility.yul\":72:77   */\n      dup2\n        /* \"#utility.yul\":61:77   */\n      swap1\n      pop\n        /* \"#utility.yul\":7:83   */\n      swap2\n      swap1\n      pop\n      jump\t// out\n        /* \"#utility.yul\":89:204   */\n    tag_21:\n        /* \"#utility.yul\":174:197   */\n      tag_26\n        /* \"#utility.yul\":191:196   */\n      dup2\n        /* \"#utility.yul\":174:197   */\n      tag_20\n      jump\t// in\n    tag_26:\n        /* \"#utility.yul\":169:172   */\n      dup3\n        /* \"#utility.yul\":162:198   */\n      mstore\n        /* \"#utility.yul\":89:204   */\n      pop\n      pop\n      jump\t// out\n        /* \"#utility.yul\":210:428   */\n    tag_11:\n        /* \"#utility.yul\":301:305   */\n      0x00\n        /* \"#utility.yul\":339:341   */\n      0x20\n        /* \"#utility.yul\":328:337   */\n      dup3\n        /* \"#utility.yul\":324:342   */\n      add\n        /* \"#utility.yul\":316:342   */\n      swap1\n      pop\n        /* \"#utility.yul\":352:421   */\n      tag_28\n        /* \"#utility.yul\":418:419   */\n      0x00\n        /* \"#utility.yul\":407:416   */\n      dup4\n        /* \"#utility.yul\":403:420   */\n      add\n        /* \"#utility.yul\":394:400   */\n      dup5\n        /* \"#utility.yul\":352:421   */\n      tag_21\n      jump\t// in\n    tag_28:\n        /* \"#utility.yul\":210:428   */\n      swap3\n      swap2\n      pop\n      pop\n      jump\t// out\n        /* \"#utility.yul\":434:614   */\n    tag_22:\n        /* \"#utility.yul\":482:559   */\n      0x4e487b7100000000000000000000000000000000000000000000000000000000\n        /* \"#utility.yul\":479:480   */\n      0x00\n        /* \"#utility.yul\":472:560   */\n      mstore\n        /* \"#utility.yul\":579:583   */\n      0x11\n        /* \"#utility.yul\":576:577   */\n      0x04\n        /* \"#utility.yul\":569:584   */\n      mstore\n        /* \"#utility.yul\":603:607   */\n      0x24\n        /* \"#utility.yul\":600:601   */\n      0x00\n        /* \"#utility.yul\":593:608   */\n      revert\n        /* \"#utility.yul\":620:851   */\n    tag_16:\n        /* \"#utility.yul\":658:661   */\n      0x00\n        /* \"#utility.yul\":681:704   */\n      tag_31\n        /* \"#utility.yul\":698:703   */\n      dup3\n        /* \"#utility.yul\":681:704   */\n      tag_20\n      jump\t// in\n    tag_31:\n        /* \"#utility.yul\":672:704   */\n      swap2\n      pop\n        /* \"#utility.yul\":726:792   */\n      0x8000000000000000000000000000000000000000000000000000000000000000\n        /* \"#utility.yul\":719:724   */\n      dup3\n        /* \"#utility.yul\":716:793   */\n      sub\n        /* \"#utility.yul\":713:816   */\n      tag_32\n      jumpi\n        /* \"#utility.yul\":796:814   */\n      tag_33\n      tag_22\n      jump\t// in\n    tag_33:\n        /* \"#utility.yul\":713:816   */\n    tag_32:\n        /* \"#utility.yul\":843:844   */\n      0x01\n        /* \"#utility.yul\":836:841   */\n      dup3\n        /* \"#utility.yul\":832:845   */\n      sub\n        /* \"#utility.yul\":825:845   */\n      swap1\n      pop\n        /* \"#utility.yul\":620:851   */\n      swap2\n      swap1\n      pop\n      jump\t// out\n        /* \"#utility.yul\":857:1088   */\n    tag_19:\n        /* \"#utility.yul\":895:898   */\n      0x00\n        /* \"#utility.yul\":918:941   */\n      tag_35\n        /* \"#utility.yul\":935:940   */\n      dup3\n        /* \"#utility.yul\":918:941   */\n      tag_20\n      jump\t// in\n    tag_35:\n        /* \"#utility.yul\":909:941   */\n      swap2\n      pop\n        /* \"#utility.yul\":963:1029   */\n      0x7fffffffffffffffffffffffffffffffffffffffffffffffffffffffffffffff\n        /* \"#utility.yul\":956:961   */\n      dup3\n        /* \"#utility.yul\":953:1030   */\n      sub\n        /* \"#utility.yul\":950:1053   */\n      tag_36\n      jumpi\n        /* \"#utility.yul\":1033:1051   */\n      tag_37\n      tag_22\n      jump\t// in\n    tag_37:\n        /* \"#utility.yul\":950:1053   */\n    tag_36:\n        /* \"#utility.yul\":1080:1081   */\n      0x01\n        /* \"#utility.yul\":1073:1078   */\n      dup3\n        /* \"#utility.yul\":1069:1082   */\n      add\n        /* \"#utility.yul\":1062:1082   */\n      swap1\n      pop\n        /* \"#utility.yul\":857:1088   */\n      swap2\n      swap1\n      pop\n      jump\t// out\n\n    auxdata: 0xa2646970667358221220986f3e12240033fe33cfbbd804145819221ed93e3bd7408b3b841cb298d20afa64736f6c634300081e0033\n}\n",
				"bytecode": {
					"linkReferences": {},
					"object": "60806040525f5f553480156011575f5ffd5b506101cc8061001f5f395ff3fe608060405234801561000f575f5ffd5b506004361061003f575f3560e01c80632baeceb7146100435780633fa4f2451461004d578063d09de08a1461006b575b5f5ffd5b61004b610075565b005b61005561008d565b60405161006291906100c2565b60405180910390f35b610073610092565b005b5f5f81548092919061008690610108565b9190505550565b5f5481565b5f5f8154809291906100a39061014f565b9190505550565b5f819050919050565b6100bc816100aa565b82525050565b5f6020820190506100d55f8301846100b3565b92915050565b7f4e487b71000000000000000000000000000000000000000000000000000000005f52601160045260245ffd5b5f610112826100aa565b91507f80000000000000000000000000000000000000000000000000000000000000008203610144576101436100db565b5b600182039050919050565b5f610159826100aa565b91507f7fffffffffffffffffffffffffffffffffffffffffffffffffffffffffffffff820361018b5761018a6100db565b5b60018201905091905056fea2646970667358221220986f3e12240033fe33cfbbd804145819221ed93e3bd7408b3b841cb298d20afa64736f6c634300081e0033",
					"opcodes": "PUSH1 0x80 PUSH1 0x40 MSTORE PUSH0 PUSH0 SSTORE CALLVALUE DUP1 ISZERO PUSH1 0x11 JUMPI PUSH0 PUSH0 REVERT JUMPDEST POP PUSH2 0x1CC DUP1 PUSH2 0x1F PUSH0 CODECOPY PUSH0 RETURN INVALID PUSH1 0x80 PUSH1 0x40 MSTORE CALLVALUE DUP1 ISZERO PUSH2 0xF JUMPI PUSH0 PUSH0 REVERT JUMPDEST POP PUSH1 0x4 CALLDATASIZE LT PUSH2 0x3F JUMPI PUSH0 CALLDATALOAD PUSH1 0xE0 SHR DUP1 PUSH4 0x2BAECEB7 EQ PUSH2 0x43 JUMPI DUP1 PUSH4 0x3FA4F245 EQ PUSH2 0x4D JUMPI DUP1 PUSH4 0xD09DE08A EQ PUSH2 0x6B JUMPI JUMPDEST PUSH0 PUSH0 REVERT JUMPDEST PUSH2 0x4B PUSH2 0x75 JUMP JUMPDEST STOP JUMPDEST PUSH2 0x55 PUSH2 0x8D JUMP JUMPDEST PUSH1 0x40 MLOAD PUSH2 0x62 SWAP2 SWAP1 PUSH2 0xC2 JUMP JUMPDEST PUSH1 0x40 MLOAD DUP1 SWAP2 SUB SWAP1 RETURN JUMPDEST PUSH2 0x73 PUSH2 0x92 JUMP JUMPDEST STOP JUMPDEST PUSH0 PUSH0 DUP2 SLOAD DUP1 SWAP3 SWAP2 SWAP1 PUSH2 0x86 SWAP1 PUSH2 0x108 JUMP JUMPDEST SWAP2 SWAP1 POP SSTORE POP JUMP JUMPDEST PUSH0 SLOAD DUP2 JUMP JUMPDEST PUSH0 PUSH0 DUP2 SLOAD DUP1 SWAP3 SWAP2 SWAP1 PUSH2 0xA3 SWAP1 PUSH2 0x14F JUMP JUMPDEST SWAP2 SWAP1 POP SSTORE POP JUMP JUMPDEST PUSH0 DUP2 SWAP1 POP SWAP2 SWAP1 POP JUMP JUMPDEST PUSH2 0xBC DUP2 PUSH2 0xAA JUMP JUMPDEST DUP3 MSTORE POP POP JUMP JUMPDEST PUSH0 PUSH1 0x20 DUP3 ADD SWAP1 POP PUSH2 0xD5 PUSH0 DUP4 ADD DUP5 PUSH2 0xB3 JUMP JUMPDEST SWAP3 SWAP2 POP POP JUMP JUMPDEST PUSH32 0x4E487B7100000000000000000000000000000000000000000000000000000000 PUSH0 MSTORE PUSH1 0x11 PUSH1 0x4 MSTORE PUSH1 0x24 PUSH0 REVERT JUMPDEST PUSH0 PUSH2 0x112 DUP3 PUSH2 0xAA JUMP JUMPDEST SWAP2 POP PUSH32 0x8000000000000000000000000000000000000000000000000000000000000000 DUP3 SUB PUSH2 0x144 JUMPI PUSH2 0x143 PUSH2 0xDB JUMP JUMPDEST JUMPDEST PUSH1 0x1 DUP3 SUB SWAP1 POP SWAP2 SWAP1 POP JUMP JUMPDEST PUSH0 PUSH2 0x159 DUP3 PUSH2 0xAA JUMP JUMPDEST SWAP2 POP PUSH32 0x7FFFFFFFFFFFFFFFFFFFFFFFFFFFFFFFFFFFFFFFFFFFFFFFFFFFFFFFFFFFFFFF DUP3 SUB PUSH2 0x18B JUMPI PUSH2 0x18A PUSH2 0xDB JUMP JUMPDEST JUMPDEST PUSH1 0x1 DUP3 ADD SWAP1 POP SWAP2 SWAP1 POP JUMP INVALID LOG2 PUSH5 0x6970667358 0x22 SLT KECCAK256 SWAP9 PUSH16 0x3E12240033FE33CFBBD804145819221E 0xD9 RETURNDATACOPY EXTCODESIZE 0xD7 BLOCKHASH DUP12 EXTCODESIZE DUP5 SHR 0xB2 SWAP9 0xD2 EXP STATICCALL PUSH5 0x736F6C6343 STOP ADDMOD 0x1E STOP CALLER "
				},
				"gasEstimates": {
					"creation": {
						"codeDepositCost": "92000",
						"executionCost": "5143",
						"totalCost": "97143"
					},
					"external": {
						"decrement()": "24474",
						"increment()": "24518",
						"value()": "2424"
					}
				},
				"methodIdentifiers": {
					"decrement()": "2baeceb7",
					"increment()": "d09de08a",
					"value()": "3fa4f245"
				}
			},
			"storageLayout": {
				"storage": [
					{
						"astId": 4,
						"contract": "counter/counter.sol:Counter",
						"label": "value",
						"offset": 0,
						"slot": "0",
						"type": "t_int256"
					}
				],
				"types": {
					"t_int256": {
						"encoding": "inplace",
						"label": "int256",
						"numberOfBytes": "32"
					}
				}
			},
			"userdoc": {
				"kind": "user",
				"methods": {},
				"version": 1
			}
		}
	}
}