{
	"data": {
		"bytecode": {
			"linkReferences": {},
			"object": "60806040525f5f5f6101000a81548160ff0219169083151502179055503480156026575f5ffd5b50610216806100345f395ff3fe608060405234801561000f575f5ffd5b5060043610610060575f3560e01c806322f3e2d41461006457806334b80083146100825780637c060b961461008c57806382bb23061461009657806386a47096146100a0578063870665d3146100be575b5f5ffd5b61006c6100dc565b6040516100799190610162565b60405180910390f35b61008a6100ed565b005b610094610108565b005b61009e610125565b005b6100a8610130565b6040516100b59190610193565b60405180910390f35b6100c6610136565b6040516100d391906101c7565b60405180910390f35b5f5f9054906101000a900460ff1681565b60015f5f6101000a81548160ff021916908315150217905550565b60055f60016101000a81548160ff021916908360ff160217905550565b611996600181905550565b60015481565b5f60019054906101000a900460ff1681565b5f8115159050919050565b61015c81610148565b82525050565b5f6020820190506101755f830184610153565b92915050565b5f819050919050565b61018d8161017b565b82525050565b5f6020820190506101a65f830184610184565b92915050565b5f60ff82169050919050565b6101c1816101ac565b82525050565b5f6020820190506101da5f8301846101b8565b9291505056fea26469706673582212206aa7382c8860015778fe5644746068a604241771cf00c4d81a5a697a9e721b2b64736f6c634300081e0033",
			"opcodes": "PUSH1 0x80 PUSH1 0x40 MSTORE PUSH0 PUSH0 PUSH0 PUSH2 0x100 EXP DUP2 SLOAD DUP2 PUSH1 0xFF MUL NOT AND SWAP1 DUP4 ISZERO ISZERO MUL OR SWAP1 SSTORE POP CALLVALUE DUP1 ISZERO PUSH1 0x26 JUMPI PUSH0 PUSH0 REVERT JUMPDEST POP PUSH2 0x216 DUP1 PUSH2 0x34 PUSH0 CODECOPY PUSH0 RETURN INVALID PUSH1 0x80 PUSH1 0x40 MSTORE CALLVALUE DUP1 ISZERO PUSH2 0xF JUMPI PUSH0 PUSH0 REVERT JUMPDEST POP PUSH1 0x4 CALLDATASIZE LT PUSH2 0x60 JUMPI PUSH0 CALLDATALOAD PUSH1 0xE0 SHR DUP1 PUSH4 0x22F3E2D4 EQ PUSH2 0x64 JUMPI DUP1 PUSH4 0x34B80083 EQ PUSH2 0x82 JUMPI DUP1 PUSH4 0x7C060B96 EQ PUSH2 0x8C JUMPI DUP1 PUSH4 0x82BB2306 EQ PUSH2 0x96 JUMPI DUP1 PUSH4 0x86A47096 EQ PUSH2 0xA0 JUMPI DUP1 PUSH4 0x870665D3 EQ PUSH2 0xBE JUMPI JUMPDEST PUSH0 PUSH0 REVERT JUMPDEST PUSH2 0x6C PUSH2 0xDC JUMP JUMPDEST PUSH1 0x40 MLOAD PUSH2 0x79 SWAP2 SWAP1 PUSH2 0x162 JUMP JUMPDEST PUSH1 0x40 MLOAD DUP1 SWAP2 SUB SWAP1 RETURN JUMPDEST PUSH2 0x8A PUSH2 0xED JUMP JUMPDEST STOP JUMPDEST PUSH2 0x94 PUSH2 0x108 JUMP JUMPDEST STOP JUMPDEST PUSH2 0x9E PUSH2 0x125 JUMP JUMPDEST STOP JUMPDEST PUSH2 0xA8 PUSH2 0x130 JUMP JUMPDEST PUSH1 0x40 MLOAD PUSH2 0xB5 SWAP2 SWAP1 PUSH2 0x193 JUMP JUMPDEST PUSH1 0x40 MLOAD DUP1 SWAP2 SUB SWAP1 RETURN JUMPDEST PUSH2 0xC6 PUSH2 0x136 JUMP JUMPDEST PUSH1 0x40 MLOAD PUSH2 0xD3 SWAP2 SWAP1 PUSH2 0x1C7 JUMP JUMPDEST PUSH1 0x40 MLOAD DUP1 SWAP2 SUB SWAP1 RETURN JUMPDEST PUSH0 PUSH0 SWAP1 SLOAD SWAP1 PUSH2 0x100 EXP SWAP1 DIV PUSH1 0xFF AND DUP2 JUMP JUMPDEST PUSH1 0x1 PUSH0 PUSH0 PUSH2 0x100 EXP DUP2 SLOAD DUP2 PUSH1 0xFF MUL NOT AND SWAP1 DUP4 ISZERO ISZERO MUL OR SWAP1 SSTORE POP JUMP JUMPDEST PUSH1 0x5 PUSH0 PUSH1 0x1 PUSH2 0x100 EXP DUP2 SLOAD DUP2 PUSH1 0xFF MUL NOT AND SWAP1 DUP4 PUSH1 0xFF AND MUL OR SWAP1 SSTORE POP JUMP JUMPDEST PUSH2 0x1996 PUSH1 0x1 DUP2 SWAP1 SSTORE POP JUMP JUMPDEST PUSH1 0x1 SLOAD DUP2 JUMP JUMPDEST PUSH0 PUSH1 0x1 SWAP1 SLOAD SWAP1 PUSH2 0x100 EXP SWAP1 DIV PUSH1 0xFF AND DUP2 JUMP JUMPDEST PUSH0 DUP2 ISZERO ISZERO SWAP1 POP SWAP2 SWAP1 POP JUMP JUMPDEST PUSH2 0x15C DUP2 PUSH2 0x148 JUMP JUMPDEST DUP3 MSTORE POP POP JUMP JUMPDEST PUSH0 PUSH1 0x20 DUP3 ADD SWAP1 POP PUSH2 0x175 PUSH0 DUP4 ADD DUP5 PUSH2 0x153 JUMP JUMPDEST SWAP3 SWAP2 POP POP JUMP JUMPDEST PUSH0 DUP2 SWAP1 POP SWAP2 SWAP1 POP JUMP JUMPDEST PUSH2 0x18D DUP2 PUSH2 0x17B JUMP JUMPDEST DUP3 MSTORE POP POP JUMP JUMPDEST PUSH0 PUSH1 0x20 DUP3 ADD SWAP1 POP PUSH2 0x1A6 PUSH0 DUP4 ADD DUP5 PUSH2 0x184 JUMP JUMPDEST SWAP3 SWAP2 POP POP JUMP JUMPDEST PUSH0 PUSH1 0xFF DUP3 AND SWAP1 POP SWAP2 SWAP1 POP JUMP JUMPDEST PUSH2 0x1C1 DUP2 PUSH2 0x1AC JUMP JUMPDEST DUP3 MSTORE POP POP JUMP JUMPDEST PUSH0 PUSH1 0x20 DUP3 ADD SWAP1 POP PUSH2 0x1DA PUSH0 DUP4 ADD DUP5 PUSH2 0x1B8 JUMP JUMPDEST SWAP3 SWAP2 POP POP JUMP INVALID LOG2 PUSH5 0x6970667358 0x22 SLT KECCAK256 PUSH11 0xA7382C8860015778FE5644 PUSH21 0x6068A604241771CF00C4D81A5A697A9E721B2B6473 PUSH16 0x6C634300081E00330000000000000000 "
		},
		"gasEstimates": {
			"creation": {
				"codeDepositCost": "106800",
				"executionCost": "24415",
				"totalCost": "131215"
			},
			"external": {
				"isActive()": "2443",
				"numberWithoutSignal256()": "2491",
				"numberWithoutSignal8()": "2604",
				"setIsActiveToTrue()": "24408",
				"setNumberWithoutSignal256()": "22301",
				"setNumberWithoutSignal8()": "24481"
			}
		},
		"methodIdentifiers": {
			"isActive()": "22f3e2d4",
			"numberWithoutSignal256()": "86a47096",
			"numberWithoutSignal8()": "870665d3",
			"setIsActiveToTrue()": "34b80083",
			"setNumberWithoutSignal256()": "82bb2306",
			"setNumberWithoutSignal8()": "7c060b96"
		}
	},
	"abi": [
		{
			"inputs": [],
			"name": "isActive",
			"outputs": [
				{
					"internalType": "bool",
					"name": "",
					"type": "bool"
				}
			],
			"stateMutability": "view",
			"type": "function"
		},
		{
			"inputs": [],
			"name": "numberWithoutSignal256",
			"outputs": [
				{
					"internalType": "uint256",
					"name": "",
					"type": "uint256"
				}
			],
			"stateMutability": "view",
			"type": "function"
		},
		{
			"inputs": [],
			"name": "numberWithoutSignal8",
			"outputs": [
				{
					"internalType": "uint8",
					"name": "",
					"type": "uint8"
				}
			],
			"stateMutability": "view",
			"type": "function"
		},
		{
			"inputs": [],
			"name": "setIsActiveToTrue",
			"outputs": [],
			"stateMutability": "nonpayable",
			"type": "function"
		},
		{
			"inputs": [],
			"name": "setNumberWithoutSignal256",
			"outputs": [],
			"stateMutability": "nonpayable",
			"type": "function"
		},
		{
			"inputs": [],
			"name": "setNumberWithoutSignal8",
			"outputs": [],
			"stateMutability": "nonpayable",
			"type": "function"
		}
	]
}